:030000000225389E
:0C253800787FE4F6D8FD75812002257F35
:1025C4004101B0004101B1004101BB004101BA0029
:1025D4004401B4008080004101BC004101AF0041CE
:1025E40001B9004101B8004401BD42C800004401E2
:0525F400C143160000C8
:03004300022891FF
:10289100C0E0C083C082C0D075D008E59A30E04264
:1028A100539AFE9001BCE0FF24B4F582E43401F5B3
:1028B10083E59BF074B42FF582E43401F583E0B431
:1028C100FF089001BC7401F080189001BCE004F095
:1028D100E0FFB404069001AF7401F0EF54039001DE
:1028E100BCF0E59A30E105539AFDC202D0D0D08206
:0528F100D083D0E032AD
:030023000227535E
:10275300C0E0C0F0C083C082C0D075D000C000C04C
:1027630001C002C003C004C005C006C007309834CE
:10277300C2989001BA7401F0A3E599F0E0F47024D3
:102783009001B9E070047F0180027F009001B9EFEE
:10279300F01230CD123104E4FF122EF412310AE4A8
:1027A300FF122FC3D007D006D005D004D003D00228
:0F27B300D001D000D0D0D082D083D0F0D0E0328F
:0100110022CC
:100E1E009001B9E07003021748A3E0640160030279
:100E2E001748A3E0B41B004003021748900E41F888
:100E3E00282873020E92020E9A02106D02124902B7
:100E4E0013F10215C80215FD0216310216640216C0
:100E5E009B0216A00216A50216AA0216B00216B31F
:100E6E000216B60216B90216BC0216C50216CE023C
:100E7E0016D50216DC0216E30216EA021714021742
:100E8E003F021743E49001BAF00230CD9001C1E069
:100E9E00FCA3E0FDA3E0FEA3E0FFA804A905AA06BB
:100EAE00FB121841C004C005C006C0079001BDE08A
:100EBE00FCA3E0FDA3E0FEA3E0FFA804A905AA069B
:100ECE00FB121841D003D002D001D0001217507B74
:100EDE00007A90796278471219E75003020FC9E43D
:100EEE00FFFE7D707C439001BDE0F8A3E0F9A3E026
:100EFE00FAA3E0FB1219E74003020FC9E4FFFEFD5F
:100F0E00FC9001C1E0F8A3E0F9A3E0FAA3E0FB1224
:100F1E0019E760025003020FC99001C1E0FCA3E083
:100F2E00FDA3E0FEA3E0FFA804A905AA06FB121884
:100F3E0041C004C005C006C0079001BDE0FCA3E09F
:100F4E00FDA3E0FEA3E0FFA804A905AA06FB121864
:100F5E0041D003D002D001D0001217507B007AD8B6
:100F6E00795678471219E760025036E4FFFEFD7C91
:100F7E003F9001C1E0F8A3E0F9A3E0FAA3E0FB1271
:100F8E0019E7401D9001C1E0FCA3E0FDA3E0FEA324
:100F9E00E0FFE4FBFAF9783F12174C9001C1121CE6
:100FAE005C9001BDE0FCA3E0FDA3E0FEA3E0FFE446
:100FBE00FBFAF9783F12175002119B9001C1E0FC29
:100FCE00A3E0FDA3E0FEA3E0FFA804A905AA06FB8B
:100FDE00121841C004C005C006C0079001BDE0FC58
:100FEE00A3E0FDA3E0FEA3E0FFA804A905AA06FB6B
:100FFE00121841D003D002D001D0001217507B003E
:10100E007A90796278471219E75034E4FFFEFDFCBE
:10101E009001C1E0F8A3E0F9A3E0FAA3E0FB1219F6
:10102E00E7601C401A9001BDE0FCA3E0FDA3E0FECA
:10103E00A3E0FFE4FBFAF9783F12174C021223E407
:10104E00FFFEFDFC9001C1E0F8A3E0F9A3E0FAA3D6
:10105E00E0FB1219E7600540030217480213D59012
:10106E0001C1E0FCA3E0FDA3E0FEA3E0FFA804A9FC
:10107E0005AA06FB121841C004C005C006C00790A1
:10108E0001BDE0FCA3E0FDA3E0FEA3E0FFA804A9E0
:10109E0005AA06FB121841D003D002D001D00012CF
:1010AE001750E4FBFA79FA78461219E76005400307
:1010BE000211A1E4FFFE7DA07C409001BDE0F8A3EB
:1010CE00E0F9A3E0FAA3E0FB1219E7600250030275
:1010DE0011A1E4FFFEFDFC9001C1E0F8A3E0F9A32D
:1010EE00E0FAA3E0FB1219E7600250030211A1908F
:1010FE0001C1E0FCA3E0FDA3E0FEA3E0FFA804A96C
:10110E0005AA06FB121841C004C005C006C0079010
:10111E0001BDE0FCA3E0FDA3E0FEA3E0FFA804A94F
:10112E0005AA06FB121841D003D002D001D000123E
:10113E0017507B007AE8790078471219E74037E4B8
:10114E00FFFE7D707C439001C1E0F8A3E0F9A3E0BF
:10115E00FAA3E0FB1219E7501D9001C1E0FCA3E0D9
:10116E00FDA3E0FEA3E0FFE4FBFAF9783F1217506F
:10117E009001C1121C5C9001BDE0FCA3E0FDA3E058
:10118E00FEA3E0FFE4FBFAF9783F12174C9001BD85
:10119E000215039001C1E0FCA3E0FDA3E0FEA3E075
:1011AE00FFA804A905AA06FB121841C004C005C079
:1011BE0006C0079001BDE0FCA3E0FDA3E0FEA3E0A6
:1011CE00FFA804A905AA06FB121841D003D002D02D
:1011DE0001D000121750E4FBFA79FA78461219E79B
:1011EE0060025037E4FFFEFDFC9001C1E0F8A3E081
:1011FE00F9A3E0FAA3E0FB1219E7601F401D90016E
:10120E00BDE0FCA3E0FDA3E0FEA3E0FFE4FBFAF9E2
:10121E00783F1217509001BD0213D2E4FFFEFDFC81
:10122E009001C1E0F8A3E0F9A3E0FAA3E0FB1219E4
:10123E00E76005400302174802152BE4FFFEFDFC94
:10124E009001C1E0F8A3E0F9A3E0FAA3E0FB1219C4
:10125E00E7600250030213D59001C1E0FCA3E0FD4C
:10126E00A3E0FEA3E0FFA804A905AA06FB121841FD
:10127E00C004C005C006C0079001BDE0FCA3E0FDA0
:10128E00A3E0FEA3E0FFA804A905AA06FB121841DD
:10129E00D003D002D001D0001217507B007A907983
:1012AE006278471219E7600250030213639001C17E
:1012BE00E0FCA3E0FDA3E0FEA3E0FFA804A905AABD
:1012CE0006FB121841C004C005C006C0079001BD40
:1012DE00E0FCA3E0FDA3E0FEA3E0FFA804A905AA9D
:1012EE0006FB121841D003D002D001D000121750C5
:1012FE007B007AD8795678471219E760025039E4A4
:10130E00FFFE7DA07C409001BDE0F8A3E0F9A3E0D4
:10131E00FAA3E0FB1219E7601F401D9001BDE0FC2F
:10132E00A3E0FDA3E0FEA3E0FFE4FBFAF9783F1291
:10133E00174C9001BD121C5C9001C1E0FCA3E0FDB6
:10134E00A3E0FEA3E0FFE4FBFAF9783F12175090FA
:10135E0001C10215039001C1E0FCA3E0FDA3E0FE74
:10136E00A3E0FFA804A905AA06FB121841C004C0F9
:10137E0005C006C0079001BDE0FCA3E0FDA3E0FEA2
:10138E00A3E0FFA804A905AA06FB121841D003D0BA
:10139E0002D001D0001217507B007A907962784704
:1013AE001219E7600540030217489001C1E0FCA343
:1013BE00E0FDA3E0FEA3E0FFE4FBFAF9783F12178D
:1013CE004C9001C1021C5C9001C1E0FCA3E0FDA3A6
:1013DE00E0FEA3E0FF7BCD7ACC79CC783D1217509E
:1013EE00021544E4FFFEFDFC9001C1E0F8A3E0F914
:1013FE00A3E0FAA3E0FB1219E76002500302152BDB
:10140E009001C1E0FCA3E0FDA3E0FEA3E0FFA80471
:10141E00A905AA06FB121841C004C005C006C007E4
:10142E009001BDE0FCA3E0FDA3E0FEA3E0FFA80455
:10143E00A905AA06FB121841D003D002D001D00094
:10144E00121750E4FBFA79FA78461219E760054054
:10145E00030217489001C1E0FCA3E0FDA3E0FEA348
:10146E00E0FFA804A905AA06FB121841C004C00596
:10147E00C006C0079001BDE0FCA3E0FDA3E0FEA303
:10148E00E0FFA804A905AA06FB121841D003D0025A
:10149E00D001D0001217507B007AE87900784712FD
:1014AE0019E74037E4FFFE7D707C439001BDE0F804
:1014BE00A3E0F9A3E0FAA3E0FB1219E7501D900197
:1014CE00BDE0FCA3E0FDA3E0FEA3E0FFE4FBFAF920
:1014DE00783F1217509001BD121C5C9001C1E0FCC8
:1014EE00A3E0FDA3E0FEA3E0FFE4FBFAF9783F12D0
:1014FE00174C9001C1121C5C9001C1E0FCA3E0FDF1
:10150E00A3E0FEA3E0FF900172121C5C9001BDE00F
:10151E00FCA3E0FDA3E0FEA3E0FF021C959001C139
:10152E00E0FCA3E0FDA3E0FEA3E0FF7BCD7ACC7947
:10153E00CC783D12174C9001C1121C5CE4FFFE7D6D
:10154E00207C419001C1E0F8A3E0F9A3E0FAA3E00A
:10155E00FB1218417B007AC0790F78451217501292
:10156E001A9E9001ABEEF0A3EFF0E4FFFE7D207C1F
:10157E00419001C1E0F8A3E0F9A3E0FAA3E0FB1269
:10158E001841E4FBFA79FA7844121750121A9E9019
:10159E0001ADEEF0A3EFF09001ABE0FCA3E0FD7F18
:1015AE0002122DE99001ADE0FCA3E0FD7F03122DA8
:1015BE00E97DFC7C087F04022DE97F057E00122D5B
:1015CE00459001B2EEF0A3EFF0C394C1EE648094A7
:1015DE008940067DC17C09800E9001B3E02401FD97
:1015EE009001B2E03400FC7F05122DE90216957FC2
:1015FE00057E00122D459001B2EEF0A3EFF0D394CC
:10160E00F7EE6480948150067DF77C01800E900188
:10161E00B3E024FFFD9001B2E034FFFC7F05122DF4
:10162E00E98064E4FFFE122D459001B2EEF0A3EFC7
:10163E00F0C39440EE6480948640067D407C068024
:10164E000E9001B3E02401FD9001B2E03400FCE401
:10165E00FF122DE98031E4FFFE122D459001B2EE0E
:10166E00F0A3EFF0D39484EE6480948350067D84CF
:10167E007C03800E9001B3E024FFFD9001B2E034B4
:10168E00FFFCE4FF122DE91229A60230851230A9C3
:10169E00800D1230B280081230BB80031230C402AB
:1016AE00301F0230F60231040230FD02310A7FE8AB
:1016BE007E03122CBA80747FE87E03122CE9806BB5
:1016CE007F01122EF48064E4FF122EF4805D7F0100
:1016DE00122EC18056E4FF122EC1804F9001B8E049
:1016EE00FFB401057401F08013EF2409FFE433FE0B
:1016FE007C007D0A121BAB9001B8EDF09001B8E0B2
:10170E00FF122FC380259001B8E0FF7003F0801305
:10171E00EF2401FFE433FE7C007D0A121BAB900127
:10172E00B8EDF09001B8E0FF122FC3E49001BAF0CB
:0B173E00227F0180027F081230EE22A3
:10294F00E4F580F59075A0FF75B0DF43BB70FF1203
:10295F002FC37D847C03E4FF122DE97DDC7C057F92
:10296F0001122DE97D827C057F02122DE97D967C77
:10297F00057F03122DE97DDC7C057F04122DE91202
:10298F0029A67F807E25122A50122F0D122F231277
:07299F00000E120E1E80FB6A
:0925F90046000005DC05DC05DCF0
:03000E0002282A9B
:10282A0090016EE4F0A304F090016EE0FCA3E0FDD9
:10283A00C394B5EC64809480504CEC121A657B8F7B
:10284A007AC279317841121841E4FBFA79FA78436D
:10285A00121750121A9EAD07AC0690016FE025E0E0
:10286A00FF90016EE033FE74042FF58274003EF58A
:10287A0083ECF0A3EDF090016FE004F070AA9001F0
:06288A006EE004F080A2E4
:012890002225
:101C950090016E121C5CE4FFFEFDFC900172E0F801
:101CA500A3E0F9A3E0FAA3E0FB1219E7900172E0C3
:061CB500FC5003021EFBBF
:101CBB00A3E0FDA3E0FEA3E0FFA804A905AA06FB91
:101CCB00121841C004C005C006C00790016EE0FCAD
:101CDB00A3E0FDA3E0FEA3E0FFA804A905AA06FB71
:101CEB00121841D003D002D001D000121750122489
:101CFB0090900176121C5C900176E0F8A3E0F9A3BA
:101D0B00E0FAA3E0FB90016EE0FCA3E0FDA3E0FE94
:101D1B00A3E0FF12194A90017A121C5C900176E045
:101D2B00FCA3E0FDA3E0FEA3E0FF900176E0F8A3A7
:101D3B00E0F9A3E0FAA3E0FB1218417B007A4079AB
:101D4B001C78C6121750E4FBFAF9784012194AE4D2
:101D5B00FBFA79D2784212194A900176E0F8A3E0A7
:101D6B00F9A3E0FAA3E0FB12194A90017E121C5C66
:101D7B00900176E0FCA3E0FDA3E0FEA3E0FF900161
:101D8B0076E0F8A3E0F9A3E0FAA3E0FB1218417B9D
:101D9B00007A40791C7846121750E4FBFAF9784028
:101DAB0012194AE4FBFA7911784312194A90017619
:101DBB00E0F8A3E0F9A3E0FAA3E0FB12194A9001C3
:101DCB0082121C5C90017AE0FCA3E0FDA3E0FEA371
:101DDB00E0FF122B96E4FBFA793478431218417B1F
:101DEB00C37AF57948784012194A121A9E900186E7
:101DFB00EEF0A3EFF090017EE0FCA3E0FDA3E0FE8C
:101E0B00A3E0FF122B96E4FBFA79347843121841C6
:101E1B007BC37AF57948784012194A121A9E9001C1
:101E2B0088EEF0A3EFF0900182E0FCA3E0FDA3E0CD
:101E3B00FEA3E0FF122B96E4FBFA793478431218D9
:101E4B00417BC37AF57948784012194A121A9E9051
:101E5B00018AEEF0A3EFF090018AE0FCA3E0FDC352
:101E6B00900187E09DFF900186E09CFEEF25E0FF4F
:101E7B00EE33FE74602FF58274003EF583E0FFA312
:101E8B00E0900000CFF0A3EFF0900188E0FAA3E020
:101E9B00FB2DFFEA3CFEC3745A9FFFE49EFEEF2529
:101EAB00E0FFEE33FE74062FF58274003EF583E0FF
:101EBB00FFA3E0900002CFF0A3EFF0900186E0FECD
:101ECB00A3E0FFC374B49FCFE49ECFC39BCF9AFE16
:101EDB00EF25E0FFEE33FE74062FF58274003EF51E
:101EEB0083E0FFA3E0900004CFF0A3EFF0022D708E
:101EFB00A3E0FDA3E0FEA3E0FFA804A905AA06FB4F
:101F0B00121841C004C005C006C00790016EE0FC6A
:101F1B00A3E0FDA3E0FEA3E0FFA804A905AA06FB2E
:101F2B00121841D003D002D001D000121750122446
:101F3B0090900176121C5C900176E0F8A3E0F9A377
:101F4B00E0FAA3E0FB90016EE0FCA3E0FDA3E0FE52
:101F5B00A3E0FF12194A90017A121C5C900176E003
:101F6B00FCA3E0FDA3E0FEA3E0FF900176E0F8A365
:101F7B00E0F9A3E0FAA3E0FB1218417B007ABC79ED
:101F8B003178C6121750E4FBFAF9784012194AE47B
:101F9B00FBFA7911784312194A900176E0F8A3E025
:101FAB00F9A3E0FAA3E0FB12194A90017E121C5C24
:101FBB00900176E0FCA3E0FDA3E0FEA3E0FF90011F
:101FCB0076E0F8A3E0F9A3E0FAA3E0FB121841A82E
:101FDB0004A905AA06AB077F007E3C7D3D7CC6129B
:101FEB00174CE4FBFAF9784012194AE4FBFA791121
:101FFB00784312194AE4FBFA7934784312194A9060
:10200B000182121C5C90017AE0FCA3E0FDA3E0FED0
:10201B00A3E0FF122B96E4FBFA79347843121841B4
:10202B007BC37AF57948784012194A121A9E9001AF
:10203B0086EEF0A3EFF090017EE0FCA3E0FDA3E0C1
:10204B00FEA3E0FF122B96E4FBFA793478431218C7
:10205B00417BC37AF57948784012194A121A9E903F
:10206B000188EEF0A3EFF0900182E0FCA3E0FDA36A
:10207B00E0FEA3E0FF122B96E4FBFA7934784312CF
:10208B0018417BC37AF57948784012194A121A9E87
:10209B0090018AEEF0A3EFF0E025E0FF90018AE0DB
:1020AB0033FE74522FF58274FF3EF583E0FFA3E0FD
:1020BB00900000CFF0A3EFF0900186E0FEA3E0FFCD
:1020CB00C3900189E09FFF900188E09EFEEF25E021
:1020DB00FFEE33FE74BA2FF58274003EF583E0FFFA
:1020EB00A3E0900002CFF0A3EFF0900000E0FCA380
:1020FB00E0FD7F02122DE9900002E0FCA3E0FD7FE2
:10210B0003122DE97DC47C097F04122DE91229A647
:01211B0022A1
:102D7000900000E0FCA3E0FD7F02122DE99000022C
:102D8000E0FCA3E0FD7F03122DE9900004E0FCA32A
:0A2D9000E0FD7F04122DE90229A6E0
:092602004101EA004201EB060768
:102E7100EF1FAA0670011E4A60107C137D88ED1DAC
:0A2E8100AA0470011C4A60E880F406
:012E8B002224
:102EDB00D2AFD2AD759DC0E4F5BD43BC8043BC60A1
:092EEB0043BC087F02FE022E71B7
:03002B000228F6B2
:1028F600C0E0C0F0C083C082C0D075D000C005C0A3
:102906000775BC00AFBDEF75F032A4E5F0FF90018E
:10291600EAE0FD25E024E6F582E43401F583E4F0FF
:10292600A3EFF0ED0454019001EAF0E024EBF58208
:10293600E43401F583E044E8F5BCD007D005D0D0F7
:09294600D082D083D0F0D0E03241
:0C2FD1007F727EFF7D6BDDFEDEFCDFFA10
:012FDD0022D1
:0C2FDE007F2E7E997DF5DDFEDEFCDFFA23
:012FEA0022C4
:0C2FEB007F177ECD7D78DDFEDEFCDFFA76
:012FF70022B7
:0C2FF8007F0E7EAE7DE0DDFEDEFCDFFA29
:0130040022A9
:0C3005007F0A7E1F7D93DDFEDEFCDFFAFB
:01301100229C
:0C3012007F077ED77DEEDDFEDEFCDFFADE
:01301E00228F
:0C301F007F057E907D47DDFEDEFCDFFAC1
:01302B002282
:0C302C007F017EEA7D71DDFEDEFCDFFA34
:013038002275
:08306A007F757EB8DEFEDFFC7D
:01307200223B
:083073007F3B7E5ADEFEDFFC0C
:01307B002232
:08307C007F247E01DEFEDFFC73
:013084002229
:083085007F0C7EA9DEFEDFFCDA
:01308D002220
:08308E007F067ED3DEFEDFFCAD
:013096002217
:083097007F037E52DEFEDFFC28
:01309F00220E
:0830A0007F017E92DEFEDFFCE1
:0130A8002205
:040006007F39DFFE61
:01000A0022D3
:062FA700EE25E0FED290D1
:072FAD000000007F0ADFFEB7
:012FB40022FA
:102F7400D291D290122FADC291122FADC290022FD6
:012F8400AD9F
:0C304600C291D290122FADD291022FAD9A
:0E2FB500A2039291D290122FADC290022FADC6
:0D303900D290122FADA291C290122FAD22A5
:072DC300AF04122DCAAF039B
:022DCA00AE0752
:102DCC00E4FDEEC4131313540124FF9291122FA7A8
:0D2DDC00C290122FAD0DEDB408E8023039A1
:102E8C00E4FED291FD122FA7A291E4334EFEC29024
:0A2E9C00122FAD0DEDB408EDAF06E6
:012EA6002209
:102F6200AE07AC05122F74AF06122DCA122DC30282
:022F72003046E7
:042E0F00AC07AB055C
:102E1300122F74122DC3122F74EC4401FF122DCA0A
:0F2E2300122E8CAE07D203122FB5123046AF0617
:012E3200227D
:102D1800E4FB7D6B7FD0122F627B077D197FD01279
:102D28002F627B067D1A7FD0122F627B187D1B7F56
:0D2D3800D0122F627B017D1C7FD0022F6224
:062C87009001FBEFF0FDDF
:102C8D007FD0122E0F9001FCEFF09001FBE004FDC0
:102C9D007FD0122E0FAD079001FCE0FF3395E0EFD2
:0C2CAD00FEED3395E0FCE42DFFEE3CFE54
:012CB90022F8
:102AF8007F3B122C879001C9EEF0A3EFF07F3D12C7
:102B08002C879001CBEEF0A3EFF07F3F122C87903B
:102B180001CDEEF0A3EFF07F43122C879001CFEEAA
:102B2800F0A3EFF07F45122C879001D1EEF0A3EFD0
:0F2B3800F07F47122C879001C5EEF0A3EFF0223B
:100046000000000000000000002F00000000070074
:10005600070000147F147F1400242A7F2A120062EE
:10006600640813230036495522500000050300009A
:1000760000001C224100000041221C000014083E22
:1000860008140008083E0808000000A060000008E8
:10009600080808080000606000000020100804023C
:1000A600003E5149453E0000427F400000426151FA
:1000B6004946002141454B31001814127F10002794
:1000C60045454539003C4A49493000017109050357
:1000D60000364949493600064949291E0000363688
:1000E60000000000563600000008142241000014EB
:1000F60014141414000041221408000201510906C8
:1001060000324959513E007C1211127C007F494948
:100116004936003E41414122007F4141221C007F79
:1001260049494941007F09090901003E4149497A87
:10013600007F0808087F0000417F41000020404101
:100146003F01007F08142241007F40404040007F6D
:10015600020C027F007F0408107F003E4141413EB1
:10016600007F09090906003E4151215E007F0919F9
:1001760029460046494949310001017F0101003FF6
:100186004040403F001F2040201F003F4038403F76
:1001960000631408146300070870080700615149DA
:1001A600454300007F41410000552A552A5500006D
:1001B60041417F00000402010204004040404040EB
:1001C600000001020400002054545478007F484483
:1001D600443800384444442000384444487F0038BA
:1001E6005454541800087E0901020018A4A4A47CE3
:1001F600007F080404780000447D400000408084AD
:100206007D00007F102844000000417F4000007CF4
:1002160004180478007C0804047800384444443800
:1002260000FC242424180018242418FC007C08044C
:10023600040800485454542000043F444020003C25
:100246004040207C001C2040201C003C4030403CAC
:10025600004428102844001CA0A0A07C004464543C
:100266004C44141414141414000000000000000080
:100276000000000000000000000000F80000000080
:10028600000000333000000000100C06100C0600C1
:10029600000000000000000040C07840C078400028
:1002A600043F04043F040400007088FC083000008A
:1002B600001820FF211E0000F008F000E0180000E2
:1002C60000211C031E211E0000F00888700000009B
:1002D6001E2123241927211010160E0000000000ED
:1002E6000000000000000000000000E0180402000A
:1002F600000000071820400000020418E00000007B
:100306000040201807000000404080F08040400078
:100316000202010F01020200000000F000000000CE
:100326000101011F010101000000000000000000A2
:1003360080B0700000000000000000000000000017
:1003460000010101010101010000000000000000A0
:10035600003030000000000000000000806018043B
:10036600006018060100000000E010080810E00018
:10037600000F102020100F00001010F800000000E1
:100386000020203F20200000007008080888700028
:1003960000302824222130000030088888483000A8
:1003A6000018202020110E000000C02010F80000C8
:1003B60000070424243F240000F808888808080061
:1003C6000019212020110E0000E010888818000076
:1003D600000F112020110E0000380808C838080048
:1003E6000000003F000000000070880808887000C8
:1003F600001C222121221C0000E010080810E00049
:100406000000312222110F00000000C0C0000000D1
:1004160000000030300000000000008000000000F6
:1004260000008060000000000000804020100800EE
:1004360000010204081020004040404040404000B7
:100446000404040404040400000810204080000092
:100456000020100804020100007048080808F00097
:100466000000003036010000C030C828E810E00067
:100476000718272423140B000000C038E0000000F2
:10048600203C23020227382008F88888887000005C
:10049600203F202020110E00C03008080808380030
:1004A600071820202010080008F808080810E000A7
:1004B600203F202020100F0008F88888E808100048
:1004C600203F20202320180008F88888E80810001C
:1004D600203F200003000000C03008080838000054
:1004E60007182020221E020008F808000008F80855
:1004F600203F210101213F20000808F808080000DC
:100506000020203F2020000000000808F80808000E
:10051600C08080807F00000008F888C02818080086
:10052600203F20012638200008F8080000000000BF
:10053600203F20202020300008F8F800F8F80800B6
:10054600203F003F003F200008F830C00008F808B0
:10055600203F200007183F00E01008080810E000C0
:100566000F10202020100F0008F808080808F000D7
:10057600203F210101010000E01008080810E000FA
:100586000F18242438504F0008F88888888870008F
:10059600203F2000030C302000708808080838002F
:1005A6000038202121221C00180808F80808180025
:1005B6000000203F2000000008F808000008F808A6
:1005C600001F202020201F000878880000C8380857
:1005D600000007380E010000F80800F80008F800CF
:1005E600033C0700073C0300081868808068180869
:1005F60020302C03032C30200838C800C8380800E7
:100606000000203F2000000010080808C838080035
:100616002038262120201800000000FE02020200D9
:100626000000007F40404000000C30C00000000089
:10063600000000010638C00000020202FE000000B1
:10064600004040407F000000000004020202040057
:100656000000000000000000000000000000000094
:10066600808080808080808000020204000000007C
:100676000000000000000000000080808080000074
:100686000019242222223F2008F800808000000062
:10069600003F112020110E00000000808080000025
:1006A600000E112020201100000000808088F80034
:1006B600000E112020103F20000080808080000066
:1006C600001F222222221300008080F088888818CA
:1006D6000020203F202000000000808080808000D5
:1006E600006B94949493600008F80080808000006A
:1006F600203F210000203F20008098980000000045
:100706000020203F20200000000000809898000074
:1007160000C08080807F000008F800008080800094
:10072600203F24022D302000000808F800000000B9
:100736000020203F20200000808080808080800074
:10074600203F20003F20003F808000808080000006
:10075600203F210000203F20000080808080000094
:10076600001F202020201F008080008080000000C5
:1007760080FFA12020110E000000008080808000F4
:10078600000E112020A0FF808080800080808000E5
:1007960020203F2120000100000080808080800012
:1007A6000033242424241900008080E08080000087
:1007B6000000001F202000008080000000808000D4
:1007C600001F202020103F20808080000080808035
:1007D60000010E30080601008080008000808080C5
:1007E6000F300C030C300F000080800080808000EA
:1007F6000020312E0E312000808080000080808015
:1008060080818E70180601000080808080808000C4
:100816000021302C2221300000000000807C0202E2
:1008260000000000003F404000000000FF00000004
:1008360000000000FF0000000002027C80000000B3
:100846000040403F000000000006010102020404CF
:1008560000000000000000000000F010101010FF63
:1008660010101010F0000000000000000000000052
:10087600000000000000000000000F04040404FF54
:10088600040404040F000000000000000000000043
:1008960000000000000000004040405F55555575BF
:1008A6005555555F40404000000000000000000024
:1008B60000000000000000000040200F094989796F
:1008C6000909090F20400000000000000000000098
:1008D600000000000000000000FE02424ACA4A4A28
:1008E600CA4A4A4202FE0000000000000000000062
:1008F600000000000000000000FF40504C43404054
:100906004F50505C40FF0000000000000000000057
:1009160000000000000000000000F888888888FFBA
:1009260088888888F80000000000000000000000A9
:10093600000000000000000000001F080808087FF3
:10094600888888889F80F000000000000000000072
:10095600000000000000000080828282828282E223
:10096600A2928A86828080000000000000000000BB
:100976000000000000000000000000000040807F32
:100986000000000000000000000000000000000061
:1009960000000000000000002424A4FEA322002280
:1009A600CC0000FF00000000000000000000000076
:1009B6000000000000000000080601FF000104041A
:1009C600040404FF02020200000000000000000010
:1009D6000000000000000000101010FF10900888B2
:1009E6008888FF8888880800000000000000000052
:1009F60000000000000000000444827F0180804067
:100A0600432C1028468180000000000000000000F2
:100A160000000000000000001010D0FF901000FE43
:100A2600020202FE000000000000000000000000BC
:100A36000000000000000000040300FF0083601FA8
:100A46000000003F40407800000000000000000069
:100A560000000000000000001010D0FF900010D031
:100A660010D010FF109214000000000000000000DB
:100A76000000000000000000040300FF0041310FE9
:100A860001BF41273847F0000000000000000000C9
:100A96000000000000000000404042CC00000202BE
:100AA60002F20A060200000000000000000000003A
:100AB60000000000000000000040201F20404048C9
:100AC600504F404040404000000000000000000041
:100AD6000000000000000000201888888888898EA1
:100AE6008888888888281800000000000000000018
:100AF6000000000000000000000000000040807FB1
:100B060000000000000000000000000000000000DF
:100B1600000000000000000020202020202020FFF0
:100B260020202020202020000000000000000000DF
:100B3600000000000000000080804020100C030030
:100B4600030C102040808000000000000000000020
:100B56000000000000000000403011969090919631
:100B66009090981413503000000000000000000020
:100B76000000000000000000040404040444847E15
:100B86000605040404040400000000000000000040
:100B96000000000000000000404042CC0040A09E43
:100BA6008282829EA020200000000000000000003B
:100BB60000000000000000000000003F9088404355
:100BC6002C10284641808000000000000000000034
:100BD6000000000000000000404042CC00404040C1
:100BE60040FF404040404000000000000000000080
:100BF60000000000000000000000007F2010000040
:100C060000FF0000000000000000000000000000DF
:100C1600000000000000000020202020202020FFEF
:100C260020202020202020000000000000000000DE
:100C3600000000000000000080804020100C03002F
:100C4600030C10204080800000000000000000001F
:100C560000000000000000008886A2AAAAFEAAAB37
:100C6600AAFEAAAAA28A86000000000000000000D0
:100C7600000000000000000008080482BF42221E97
:100C86002242BF0204080800000000000000000025
:100C9600000000000000000000000080808000F0DE
:100CA60080000080400000000000000000000000FE
:100CB600000000000000000000004020188780FFB0
:100CC600010619204000000000000000000000009E
:100CD6000000000000000000000000E0A0A0A0E06E
:100CE600A0A0A0E00000000000000000000000003E
:100CF60000000000000000000000484B2A1A0AFF0E
:100D06000A1A2A4B480000000000000000000000FC
:100D16000000000000000000000000A0202060A0ED
:100D260010101090000000000000000000000000FD
:100D360000000000000000000000444425140CFEE2
:100D46000C142544440000000000000000000000D0
:100D5600000000000000000000008080F08020609D
:100D6600A030A0602000000000000000000000008D
:100D7600000000000000000000000888FF04FF01DA
:100D8600755F7581FF000000000000000000000094
:100D96000000000000000000000000F0505050F07D
:100DA600505050F00000000000000000000000005D
:100DB60000000000000000000000009155179DF59E
:100DC600151359910000000000000000000000000B
:100DD60000000000000000000000001020000000DD
:100DE60000F000000000000000000000000000000D
:100DF6000000000000000000000001017F20120238
:100E060002FF0202020000000000000000000000D5
:080E16000000000000000000D4
:102EA700EF4E60157D087C07ED1DAA0470011C4AD2
:092EB70070F6EF1F70EA1E80E7BF
:012EC00022EF
:102BE000F583E5822CF582E43583F583E493FF7D5C
:012BF00001E3
:102BF100ED6004D2C18002C2C1C294E4FEC291EF71
:102C010030E704D2908002C290D291EF25E0FF0E0E
:082C1100EEB408E9D294D2C12F
:012C19002298
:102E3300AC07ED24B0FFE4FD122BF1EC54F0C454C5
:102E43000F4410FF122BF1EC540F4401FF022BF13E
:102F8500E4FD7F8D122BF17F14122BF17FAF022B05
:012F9500F14A
:102F9600E4FD7F8D122BF17F10122BF17FAE022BF9
:012FA600F139
:102D9A00E4FCEC24B0FFE4FD122BF1E4FF122BF16A
:102DAA007F10122BF1E4FB7D01E4FF122BF10BEBF8
:082DBA00B480F40CECB408DA5B
:012DC20022EE
:0627C200AA07A905AF0300
:1027C800E4FCEF24E0FBEAD3947F4004E4FA09092F
:1027D800AF02AD01122E33E4FC75F010EBA42CF51A
:1027E80082E435F0F583E582246EF582E5833402D0
:1027F800122BEA0CECB408E1AF02E904FD122E3307
:10280800E4FC75F010EBA42CF582E435F0F583E5D3
:10281800822476F582E5833402122BEA0CECB408A4
:02282800E122AB
:072E5300900201EFF0A90558
:102E5A007F017E00AD0119ED600C900201E0FD7C5E
:062E6A0000121B9980EE2E
:012E7000223F
:0E23DD009001DDEFF0A3EDF0A3EAF0A3EBF02A
:1023EB00E49001E5F09001E3F09001E1E0FF900152
:1023FB00E3E0FEC39F400302248BC3EF9E14FD7FDB
:10240B000A122E539001DFE0FCA3E0FDCFCDCFCE1F
:10241B00CCCE121BAB7C007D0A121BAB9001E4ED02
:10242B00F0A3E070309001E1E014FF9001E3E0FED7
:10243B00C39F5021A3E070179001E2E0C3138EF00D
:10244B00A4FF9001DDE02FFFA3E0FD7B2080259012
:10245B0001E57401F09001E2E0C313FFA3E0FEEF8E
:10246B008EF0A4FF9001DDE02FFFA3E0FD9001E4CF
:10247B00E02430FB1227C29001E3E004F00223F4C6
:01248B00222E
:1029FC009001EDEFF0A3EDF0A3EBF0A3EAF0A3E967
:012A0C00F0D9
:102A0D00E4A3F09001EFE0FBA3E0FAA3E0F9A3E06B
:102A1D00F582758300121B6CFB60279001EDE0FFC2
:102A2D00A3E0FD1227C29001EDE02408F0E0D3945D
:102A3D00784007E4F0A3E02402F09001F2E004F006
:022A4D0080C146
:012A4F002264
:042B4700A907AA052B
:102B4B00E4900202F0122E33E4FC75F040EBA42467
:102B5B005EF582E5F03408122BE0900202E004F0FF
:102B6B000CECB410E5AF01EA04FD122E33E4FC7556
:102B7B00F040EBA4247EF582E5F03408122BE090B4
:0A2B8B000202E004F00CECB410E5C7
:012B9500221D
:0A264E009001D3EFF09001D5EBF0FE
:10265800E49001DAF0A3F09001D6E0FF5407700887
:10266800EF131313541F800A9001D6E01313135469
:102678001F049001DCF09001DCEDF09001D6E0FF42
:102688009001DCE0FDC39F50409001D3E0FF122E83
:1026980033E0FC9001D5E0FFECC39F50249001D7B4
:1026A800E0FBA3E0FAA3E0F9A3E475F001121C0033
:1026B80085F082F583121B6CFF7D01122BF10C80D3
:0926C800D29001DCE004F080B2C4
:0126D10022E6
:10232D00D2C27F647E00122EA7C2C27F647E0012CD
:10233D002EA7D2C2E4FD7FAE122BF1E4FF122BF1DA
:10234D007F10122BF17F40122BF17F81122BF17F29
:10235D00CF122BF17FA1122BF17FC8122BF17FA68B
:10236D00122BF17FA8122BF17F3F122BF17FD3128D
:10237D002BF1E4FF122BF17FD5122BF17F80122B65
:10238D00F17FD9122BF17FF1122BF17FDA122BF1A4
:10239D007F12122BF17FDB122BF17F40122BF17F7D
:1023AD0020122BF17F02122BF17F8D122BF17F1456
:1023BD00122BF17FA4122BF17FA6122BF17FAF12FE
:1023CD002BF17FAF122BF1122D9AE4FDFF022E336C
:10260B00490198FAFAFEFEFCFAFDFB004901A224EF
:10261B00240C0C1824DAB300410190004201910004
:0E262B0000410197FB4101A1B3420193000061
:102F0D00D2AFD2A9438901900198E0F58C9001A22E
:062F1D00E0F58AD28C22CF
:102F2300D2AFD2AB4389109001A0E0F58D9001AAF6
:062F3300E0F58BD28E22B6
:03000B000226D2F8
:1026D200C0E0C0F0C083C082C0D075D000C000C0CE
:1026E20004C005C006C007900190E0FFB4080E7553
:1026F20080009001A0E0F58C9001AA8029EF70057E
:102702007580018006E58025E0F580900190E0FF6C
:102712002498F582E43401F583E0F58C74A22FF558
:1027220082E43401F583E0F58A900190E02401FF10
:10273200E433FE7C007D09121BABEDF0D007D0061E
:10274200D005D004D000D0D0D082D083D0F0D0E059
:012752003254
:03001B0002223E80
:10223E00C0E0C0F0C083C082C0D075D000C000C066
:10224E0001C002C003C004C005C006C007758DFCE6
:10225E00758B18900192E02401FF900191E03400FB
:10226E00FE7C077DD0121BABECF0FEA3EDF0FF7CE5
:10227E00007D0A121BABAF05900195EFF09001F4B3
:10228E00E0B50702D2A0900195E0FF9001F5E0B510
:10229E000704D2A2D2A39001F7E0B50702D2A49010
:1022AE000195E0FF9001F6E0B50702D293900195FB
:1022BE00E0FF9001F3E0B50702D2A1EF700CC2A0CF
:1022CE00C2A2C2A3C2A4C293C2A1900191E0B40360
:1022DE0014A3E0B4E70F90019F74FBF09001A97472
:1022EE00B3F01229A6900191E0B40718A3E0B4CF81
:1022FE0013900197E090019FF09001A1E09001A949
:10230E00F01229A6D007D006D005D004D003D002F3
:0F231E00D001D000D0D0D082D083D0F0D0E03228
:102DE900AB07C3E49DFDE49CFF74982BF582E434A2
:102DF90001F583EFF0AF05EFFF74A22BF582E43400
:062E090001F583EFF02249
:1029A60090019374B1F0A374E0F0E4FD74982DF5F2
:1029B60082E43401F583E0FE74A22DF582E434014D
:1029C600F583E07A002400FFEA3EFEC3E49FFFE4BD
:1029D6009EFE900194E02FF0900193E03EF00DED05
:1029E600B408C9900193E0FCA3E0FDEC9001A0F0CF
:0529F600ED9001AAF0C4
:0129FB0022B9
:102D4500AD07AC0674982DF58274013CF583E0FE61
:102D550074A22DF58274013CF583E07C002400FF0C
:0B2D6500EC3EFEC3E49FFFE49EFE2254
:102EF400EF900197600974F8F09001A114F0227426
:092F0400FBF09001A174B3F0226E
:102EC100EF90019E600A74FAF09001A87424F02238
:0A2ED10074FDF09001A874DAF022FD
:102A500053877F759850438E04EF8EF0121C682ABE
:102A60007B09602A8012C02A8525802A874B002A8C
:102A70008C96002A91E10000002A85759C648019DB
:102A8000759C048014800F759CEC800D759CF680FD
:102A900008759CF98003759CD9438E01438E10D232
:042AA000ACD2AF22E3
:102AA40053877F759850438E04EF8EF0121C682A6A
:102AB400CF09602AD412C02AD925802ADB4B002AE8
:102AC400E096002AE5E10000002AD9759C7080197F
:102AD400759CB88014800F759CEE800D759CF780F2
:102AE40008759CFA8003759CDC438E01438E10D2DA
:042AF400ACD2AF228F
:0B2C1A009001F8EBF0A3EAF0A3E9F052
:102C2500E4FFFE9001F8E0FBA3E0FAA3E0F98F8250
:102C35008E83121B6C600EF5993099FDC2990FBFFA
:0D2C450000010E80DE75990A3099FDC299DC
:012C5200225F
:0830D6008F993099FDC2992287
:102C5300E49001FDF0A3F0FDFCEF30E00E9001FEE7
:102C6300E004F070069001FDE004F0EFC313FF0DE4
:102C7300BD00010CED64084C70DF7E009001FEE0A6
:032C83005401FFFA
:012C8600222B
:102CBA0090016EEEF0A3EFF0D2B7D2B590016E7428
:102CCA00FFF5F0121C0045F06012C2B612309712DE
:0F2CDA003097D2B612309712309780E0C2B522F1
:102CE90090016EEEF0A3EFF0C2B7D2B590016E7409
:102CF900FFF5F0121C0045F06012C2B612309712AF
:0F2D09003097D2B612309712309780E0C2B522C1
:0300030002002ECA
:10002E00C0E0C083C0829001FF7401F0D082D08303
:03003E00D0E032DD
:0C305200D288D2A8D2AFE49001FFF02297
:0730DE009001FFE0FFE4F0A8
:0130E50022C8
:03001300022F4F6A
:102F4F00C0E0C083C0829002007401F0D082D083B1
:032F5F00D0E0328D
:0C305E00D28AD2AAD2AFE4900200F02285
:0730E600900200E0FFE4F09E
:0130ED0022C0
:102F3900439A50439850759CD9438E1543AF01D29B
:062F49008ED2ACD2AF22D3
:102639004101F4014101F5014101F7004101F600B1
:042649004101F30058
:0930A900D2A6C2A7D295C296225C
:0930B200C2A6D2A7C295D2962253
:0930BB00C2A6D2A7D295C296224A
:0930C400D2A6C2A7C295D2962241
:0930CD00C2A6C2A7C295C2962258
:0830EE009001F4EFF0A3F022C1
:0730F6009001F77403F022C2
:06310400E49001F7F02247
:0730FD009001F67403F022BC
:06310A00E49001F6F02242
:0E2FC300C2C4D2C5C2C6D2979001F3EFF0226D
:10174900021B0AE86480F8E933E83360110460F0A9
:10175900ED33EC337009E8FCE9FDEAFEEBFF220406
:1017690060DED3EB9FEA9EE99DE8C2E78CF0C2F701
:1017790095F0400CE8CCF8E9CDF9EACEFAEBCFFBCD
:10178900121AD585D0F05804700320D5B3E8047037
:10179900075002B2D5021B1492D5EC0460F7E4CCD1
:1017A900C0E0C398F8603B94186008400DD0E0FB96
:1017B900021AECE4FBFAC9FC8028E830E406E4C923
:1017C900FBE4CAFCE830E305E4C9CACBFCE85407EA
:1017D9006010F8C3E913F9EA13FAEB13FBEC13FCF5
:1017E900D8F130F52FC3E49CFCEF9BFFEE9AFEED98
:1017F90099FDD0E0FBEF4E4D4C701222DB03021B2A
:1018090011EC2CFCEF33FFEE33FEED33FDED30E749
:10181900EB021AECEF2BFFEE3AFEED39FDD0E0FBBF
:1018290050130BBB0003021B14ED13FDEE13FEEF67
:0818390013FFEC13FC021AEC92
:10184100EC4D6011E8497017ED33EC3304600DE4A1
:10185100FCFFFEFD22E933E8330470F8021B0A1293
:101861001AD558046009E4CC248150062850090295
:101871001B14284003021B11C0E0EB4A7044B980DD
:1018810006D0E0FB021B00EF4E701CBD8008EBFF91
:10189100EAFEE9FD80EBE98DF0A4FEE5F002192AEC
:1018A100E9CDF9EAFEEBFFEF89F0A4FCE5F0CE8982
:1018B100F0A42EFFE435F0CD89F0A42DFEE435F03F
:1018C1008067EF4E7005BD80D780C3EF8BF0A4AC6D
:1018D100F0EE8BF0A42CFCE435F0F8EF8AF0A42CA8
:1018E100E5F038FCE433CB8DF0A42CFCE5F03BF8BB
:1018F100EE8AF0A42CFCE5F038F8E433CF89F0A4AB
:101901002CFCE5F038CF3400CE89F0A42FFFE5F0B0
:101911003EFEE433C98DF0A42EFEE5F039CD8AF008
:10192100A42FFFE5F03EFEE43DFD33D0E0FB500780
:101931000BBB000F021B14EC2CFCEF33FFEE33FE4C
:06194100ED33FD021AEC7B
:10194700021B14EC5D046005E859047003021B0ACE
:10195700121AD5580460F6EC4860F2EC7004FDFEEC
:10196700FF22C860DB2481C85009C3986002500673
:10197700021B119850CAF582E9294B4A7005AB82C0
:10198700021B0075F0007C1A7880C3EF9BEE9AED7E
:1019970099400DC3EF9BFFEE9AFEED99FDE842F0EB
:1019A700DC23ACF0D0E0FFD0E0FED0E0FDAB82203E
:1019B700E7101BEB60BAEC2CFCEF33FFEE33FEEDC8
:1019C70033FD021AECE803F830E705C0F075F000C4
:1019D700EF2FFFEE33FEED33FD40B830E7C280AAAC
:1019E70074F8CC6480CCC86480C8F58204604FC3A7
:1019F700EB9FF5F0EA9E42F0E99D42F0E89C45F046
:101A0700603C501DE5825FFFE582D313CB5BCBF4CF
:101A17002B5582FB50280ABA002409B900200880F8
:101A27001DE5825BFBE582D313CF5FCFF4C3132F92
:101A37005582FF50090EBE00050DBD00010CC3EB1A
:101A47009FF5F0EA9E42F0E99D42F0E89C45F06080
:091A570007CC4820E701B3EC22A2
:101A600075F020800E75F010800575F0087D007E01
:101A7000007F003392D530D503121C16EC33401092
:101A8000EF33FFEE33FEED33FDEC33FCD5F0ED220A
:0E1A9000E5F0247EA2D513CC92E7CDCEFF2246
:101A9E00EDD2E7CD33EC3392D524814006E4FFFE40
:101AAE00FDFC22FCE4CFCECDCC24E0501174FF809F
:101ABE00EDC3CC13CCCD13CDCE13CECF13CF04703C
:071ACE00F030D5DE021C160A
:10248C00021B0A22EDA2E7D2E7F9EC3340F260F32B
:10249C00B4FF08ED547F70E8021B14F82481C2E0ED
:1024AC00C0E0F40428FAC313FCED92E7FD90018C14
:1024BC00121C5CEEA2E7E9BA7F02C313340094004D
:1024CC00FA75F091A4E5F013F494FE8AF0A433E5C8
:1024DC00F033248CD313FDE492E7FE7F007C3F7530
:1024EC008302ECC0E0F8EDC0E0F9EEC0E0FAEFC01A
:1024FC00E0FB8583F090018C121C2485F08312196B
:10250C004AD0E0FBD0E0FAD0E0F9D0E0F812175056
:10251C00ED6480FD30E7011CD583C7ED33CC33F877
:0C252C00D0E0A2E71328C313CC13FD225B
:102B9600ECC0E0F8EDC0E0F9EEC0E0FAEFC0E0FB13
:102BA600121841EC6480FC7B007A007980783F1231
:102BB6001750122490D0E0FBD0E0FAD0E0F9D0E034
:102BC600F8C0E012194A12213CD0E030E70B7840F9
:0A2BD60079497A0F7BD912175022BB
:101AD500E9D2E7C933E833F892D5EDD2E7CD33EC57
:071AE50033FC5002B2D522D0
:101AEC00EC30E7100FBF000C0EBE00080DBD00045B
:101AFC000BEB6014A2D5EB13FCED92E7FD2274FF07
:101B0C00FCFDFEFF22E480F8A2D574FF13FC7D805F
:031B1C00E480EF73
:10211C00BE1249253E4CCCCDBEAAAAAB3F800000D6
:10212C003E7ADBB03EED63383F24BC7D3F490FDB8C
:10213C00ED33ECC2E7CC339200B4FF13ED547F6067
:10214C0003021B0A7FDB7E0F7DC97C3F022231C25A
:10215C0001C3947F401E7007EDD2E794904015EFB9
:10216C00FBEEFAEDF9ECF87F007E007D807C3F12EF
:10217C00194AD201ED33EC33248430E705E4C0E096
:10218C00806B04FAEDD2E754F0C333DAFD54073414
:10219C00002323C0E0CCC0E0F8EDC0E0F9EEC0E0D5
:1021AC00FAEFC0E0FBE4121A6AEC24FEFC90018CFE
:1021BC00121C5C1218417B007A007980783F121750
:1021CC005090018CE0B2E7CCF0A3E0CDF0A3E0CED0
:1021DC00F0A3E0CFF0D0E0FBD0E0FAD0E0F9D0E013
:1021EC00F812175090018C121C4012194A90018C55
:1021FC00121C5C90211C7403121B1F90018C121C6E
:10220C0040121841D0E0600F2428F582E43421F507
:10221C0083121C4C12175030010B7BDB7A0F79C9DF
:10222C0078BF121750ED33EC336006ECA20092E746
:02223C00FC2282
:101B1F00C0E0EFFBEEFAEDF9ECF8121841D0E0F56A
:101B2F00F0EFFBEEFAEDF9ECF8121C30A3A3A3A330
:101B3F00E8C0E0E9C0E0EAC0E0EBC0E0C0F0121896
:101B4F0041121C4CA3A3A3A3121750D0F0D0E0FB5B
:0D1B5F00D0E0FAD0E0F9D0E0F8D5F0D422C3
:1025440002294FE493A3F8E493A34003F68001F235
:1025540008DFF48029E493A3F85407240CC8C33398
:10256400C4540F4420C8834004F456800146F6DF67
:10257400E4800B01020408102040809025C4E47E0E
:10258400019360BCA3FF543F30E509541FFEE4935C
:10259400A360010ECF54C025E060A840B8E493A323
:1025A400FAE493A3F8E493A3C8C582C8CAC583CA4E
:1025B400F0A3C8C582C8CAC583CADFE9DEE780BE06
:01264D00008C
:101B6C00BB010CE58229F582E5833AF583E022502E
:101B7C0006E92582F8E622BBFE06E92582F8E22278
:0D1B8C00E58229F582E5833AF583E4932292
:101B9900EF8DF0A4A8F0CF8CF0A428CE8DF0A42E60
:021BA900FE221A
:101BAB00BC000BBE0029EF8DF084FFADF022E4CC1E
:101BBB00F875F008EF2FFFEE33FEEC33FCEE9DECE7
:101BCB00984005FCEE9DFE0FD5F0E9E4CEFD22ED2D
:101BDB00F8F5F0EE8420D21CFEADF075F008EF2F77
:101BEB00FFED33FD4007985006D5F0F222C398FD68
:051BFB000FD5F0EA2205
:101C0000A3F8E0C5F025F0F0E58215827002158397
:061C1000E0C838F0E822F4
:0E1C1600C3E49FFFE49EFEE49DFDE49CFC22DF
:0C1C2400E0FCA3E0FDA3E0FEA3E0FF2233
:101C3000E493FC740193FD740293FE740393FF22FA
:0C1C4000E0F8A3E0F9A3E0FAA3E0FB2227
:101C4C00E493F8740193F9740293FA740393FB22EE
:0C1C5C00ECF0A3EDF0A3EEF0A3EFF022FB
:101C6800D083D082F8E4937012740193700DA3A30B
:101C780093F8740193F5828883E473740293B5F042
:0D1C8800067403936860E9A3A3A3A380D8AA
:00000001FF
